:020000040800F2
:100000007007002055020008291500087114000827
:1000100025150008C5040008991800080000000014
:10002000000000000000000000000000E1150008D2
:10003000C9040008000000002D150008E51500089F
:100040006F0200086F0200086F0200086F020008CC
:100050006F0200086F02000845050008DD06000871
:10006000B10700086F0200086F0200086F02000865
:100070006F0200086F0200086F0200086F0200089C
:100080006F0200086F0200086F0200086F0200088C
:100090006F0200086F0200086F0200086F0200087C
:1000A000B1160008751700086F0200086F020008FB
:1000B000F917000849180008000000006F02000846
:1000C0006F02000800000000000000006F0200083E
:1000D000000000006F0200086F0200086F020008B5
:1000E0006F0200086F02000800000000000000001E
:1000F0000000000000000000000000000000000000
:1001000000000000000000000000000000000000EF
:1001100000000000000000006F0200086F020008ED
:1001200000000000000000000000000000000000CF
:1001300000000000000000000000000000000000BF
:100140006F0200086F0200080000000000000000BD
:10015000000000000000000000000000000000009F
:10016000000000000000000000000000000000008F
:10017000000000000000000000000000000000007F
:10018000000000006F02000800F002F800F052F8D2
:1001900014A696E8000CB244B344DA4501D100F04D
:1001A00049F8BAE80F000FA696E83000A5EB040561
:1001B00004EB0607AAEB0704A7F101074FEA1515A0
:1001C0004FEA3414A4F10104AC4201D300F032F838
:1001D00013F0010F18BFFB1A43F0010300F001F800
:1001E000DBE71847681A0000881A0000103A24BF9D
:1001F00078C878C1FAD8520724BF30C830C144BF8C
:1002000004680C6070470000704700000023002461
:1002100000250026103A28BF78C1FBD8520728BF16
:1002200030C148BF0B6070471FB501F0EAFC1FBD2D
:1002300010B510BD00F031F81146FFF7F5FF01F0E1
:100240002DFB00F04FF803B4FFF7F2FF03BC00F002
:1002500057F800000948804709480047FEE7FEE7D5
:10026000FEE7FEE7FEE7FEE7FEE7FEE7FEE7FEE766
:1002700004480549054A064B704700009D160008D2
:100280008901000870010020700700207003002021
:1002900070030020704770477047754600F02CF8D7
:1002A000AE4605006946534620F00700854618B063
:1002B00020B5FFF7DDFFBDE820404FF000064FF00E
:1002C00000074FF000084FF0000BAC46ACE8C00947
:1002D000ACE8C009ACE8C009ACE8C00921F00701EE
:1002E0008D46704710B50446AFF300802046BDE848
:1002F0001040FFF7A8BF000000487047280000200A
:1003000001491820ABBEFEE726000200704700003E
:1003100082B041F21401C4F20201086840F40030D6
:100320000860086840F0805008604FF09040026814
:1003300042F00F0202608A69082042F49072C5F20E
:1003400000008A61D0F8001341F48031C0F8001336
:10035000016821F040510160016841F08051016065
:1003600000210191019A42F20F718A421ADC42F295
:10037000107200BF019B01330193019B8B4211DC82
:10038000019B01330193019B8B420BDC019B0133E9
:100390000193019B8B4205DC019B01330193019B7F
:1003A0009342E7DB0168C90703D0016821F001012E
:1003B0000160016841F00041016000BF0168B1F1D6
:1003C000FF3F0ADC0168B1F1FF3F06DC0168B1F1D3
:1003D000FF3F02DC01680029F0D400210091009A5F
:1003E00042F20F718A4219DC42F21072009B013313
:1003F0000093009B8B4211DC009B01330093009B18
:100400008B420BDC009B01330093009B8B4205DC8D
:10041000009B01330093009B9342E7DB416821F08E
:1004200018014160416821F020014160416821F4D8
:10043000005141604FF0A0410A6842F001020A6099
:10044000026842F0010202600868C00709D108682A
:10045000C00704BF08685FEAC07002D10868C0071F
:10046000F2D002B07047000030210128C5F200012F
:1004700004D0022808D1802001E000BF40200022E3
:100480000A600A681043086051F8280C40F0040024
:1004900041F8280C4FF0A0400268520709D40268C6
:1004A00052075CBF02685FEA427202D402685207D8
:1004B000F2D508694FF0A0410A6880B242F0040208
:1004C0000A607047FEE700007047000041F2140028
:1004D000C4F20200016841F480010160416841F00A
:1004E0000101416041F20040C4F60000016821F0C2
:1004F00001010160016821F002010160C16841F061
:100500000101C160C16821F00201C1600820C4F28C
:100510000100016841F005010160D0F8F81341F0D5
:100520000101C0F8F81340F20C40C4F20100016868
:1005300041F0010101604EF20010CEF200004021B6
:100540000160704710B540F21440C4F20100016828
:1005500040F2EC0241F001010160C2F200021368B6
:1005600044F6000440F2200EC4F20104012BC2F252
:10057000000E07D0B3B9236843F0010323600123C1
:100580000FE000BF44F6240CC4F2010CDCF800308C
:10059000CEF80030236823F0010323600023CCF859
:1005A0000030136040F21402C2F2000213684FF6EA
:1005B0003800CFF6FF7023504FF60000CFF6FF70E3
:1005C000235843F001032350DEF800001368C117DD
:1005D00000EB91704FF6340103EBA000CFF6FF71F2
:1005E0006050106840F26011DEF80020C2F2000195
:1005F0000860D11702EB917140F2641300EBA10186
:10060000C2F20003196002EB4201CB1701EB9371B8
:1006100040F25C1300EBA101C2F20003196002EB8F
:10062000D27100EB610040F25811C2F20001086083
:1006300010BD000041F21400C4F20200016841F450
:1006400080010160016841F480210160416841F04E
:100650000101416041F20040C4F60000016821F050
:1006600004010160016821F008010160C16841F0E6
:100670000401C160C16821F00801C1600820C4F212
:100680000100016841F050010160D0F8F81341F019
:100690000201C0F8F81340F20C40C4F201000168F6
:1006A00041F00201016040F20040C4F60000016820
:1006B00021F001010160016821F002010160C168BF
:1006C00041F00101C160C16821F00201C1604EF238
:1006D0000010CEF2000080210160704780B540F22A
:1006E0001440C4F20100016840F2F00C41F0020134
:1006F000016040F21040C4F60000006840F2140EA1
:1007000010F00100C2F2000CC2F2000EDCF8001082
:10071000DEF800304FF0010008BF4FF0FF304FF01F
:10072000050208BF6FF0040208449918CCF80000D5
:10073000CEF8001080BD000041F21400C4F20200A7
:10074000016841F400310160416841F001014160FC
:100750004FF09040016821F010010160016821F024
:10076000200101600C20C4F60000016841F0100176
:100770000160016821F0200101600820C4F201003D
:1007800001680160D0F8F81341F00401C0F8F813D3
:1007900040F20C40C4F20100016841F00401016024
:1007A0004EF20010CEF200004FF4807101607047ED
:1007B00040F21440C4F20100016841F004010160FC
:1007C00040F2F000C2F200000021016040F214008B
:1007D000C2F200004FF47A71016070472DE9F04FCA
:1007E00083B00C68002C00F0D38040F2004E00F182
:1007F000200240F60047C4F2010E0192C4F6000741
:10080000052200254FF0000B4FF00008B84208BF4A
:10081000032200924AE000BF40F60002C4F6000244
:10082000009E904208BF022605F00C030F279F4050
:100830002CEA070706FA03F34FEA98023B4344F811
:100840002230DEF808204B6842EA0A0740F20C44E6
:10085000DE0258BF22EA0A07CEF80870C4F201048B
:1008600022689E0242EA0A0758BF22EA0A07276066
:10087000DEF804209E0342EA0A0758BF22EA0A076C
:10088000CEF80470DEF80020DB0342EA0A0758BF06
:1008900022EA0A07CEF800700C6808F1010834FA61
:1008A00008F20BF1020B05F1040571D0012202FAE6
:1008B00008FC14EA0C0AEFD04F68032207F0030487
:1008C000661E02FA0BF2012E6FEA020912D8826844
:1008D000CE6802EA090206FA0BF6324382604268E9
:1008E000C7F3001622EA0C0206FA08F63243426009
:1008F00004E000BF032C01D103241EE0C2688E680F
:1009000002EA090206FA0BF63243022CC26014D145
:100910006FF00302019C02EA580205F01C060F2347
:1009200054F802C003FA06F70B692CEA0707B34034
:100930003B43A3504F6807F00304026804FA0BF32B
:1009400002EA09021A4317F4403F0260A4D041F2C0
:100950001803C4F202031A68AEF57E7442F0010275
:100960001A601A68B0F1904F02F001020292029AE6
:1009700028F0030254F802C008D040F20042C4F646
:10098000000290427FF448AF01264DE700264BE776
:1009900003B0BDE8F08F000040F26810C2F2000022
:1009A0000068704790F84120202A03D190F8402039
:1009B000012A01D102207047242280F841200268D8
:1009C000136823F001031360136823F4805313604A
:1009D000136819431160116841F001011160202171
:1009E00080F84110002180F840100020704700007E
:1009F00090F84120202A03D190F84020012A01D10B
:100A000002207047242280F841200268136823F0F6
:100A100001031360136823F4706343EA012111603A
:100A2000116841F001011160202180F8411000217E
:100A300080F8401000207047002804BF0120704754
:100A400010B590F8411031B9002180F840100446EB
:100A500000F04AF82046242180F8411090E8121056
:100A6000C3680A68012B22F001020A6024F0706258
:100A70000A618A6822F400428A6003D14CF4004281
:100A80008A6009E04CF40442022B8A6004D14A686F
:100A900042F4006203E000BF4A6822F400624A6048
:100AA0004A6800F1100C42F0007242F400424A60C1
:100AB000CA6822F40042CA609CE81C101A4342EA49
:100AC0000422CA60026A42EA0C020A600A6842F022
:100AD00001020A6000212022416480F84120016364
:100AE00080F84210002010BD10B586B0006845F2B5
:100AF0000042C4F2000200219042CDE90411CDE988
:100B00000211019102D006B010BD00BF41F21404E1
:100B1000C4F20204206840F480202060206800F4C1
:100B2000802000900098C02001901220CDE90201A1
:100B3000032004900420059040F20040C4F6000019
:100B400001A9FFF74BFEA06840F40010A060A06868
:100B500000F400100090009806B010BD40F20800AC
:100B600040F26811C2F20000C2F2000100780A6887
:100B7000104408607047000080B542F20000C4F2E3
:100B80000200016841F010010160032000F072F8DA
:100B9000002000F005F800F027F8002080BD0000DC
:100BA00070B540F20806C2F2000640F21C0132782D
:100BB000C2F200014FF47A730968B3FBF2F2044603
:100BC000B1FBF2F1084600F03DFC0F2C4FF001059F
:100BD00008D838B94FF0FF3021460022002500F038
:100BE0001DF87460284670BD82B041F21800C4F24E
:100BF0000200016841F001010160016801F001019A
:100C000001910199416841F080514160406800F0D4
:100C100080500090009802B07047000010B54EF66A
:100C20000C5CCEF2000CDCF80030C3F3022E8EF028
:100C30000704042C28BF0424BEF103034FF0FF3E39
:100C40000EFA04F438BF0023A14399400EFA03F3CF
:100C50009A43114300F00F0200F160430901043A86
:100C600003F564436244002848BF02F10C03197085
:100C700010BD00004EF60C51CEF200010A684FF68E
:100C8000FF031A4060F30A2242F0806040F0FD70DA
:100C9000086070472DE9F04182B00446807841F247
:100CA0001C06C007C4F202064AD030685FEAC008DA
:100CB00008D4306840F080503060306800F08050D8
:100CC0000190019847F20007C4F200073868C00598
:100CD00012D4386840F480703860FFF75DFE054636
:100CE0003868C00508D4FFF757FE401B6428F7D9C1
:100CF000032002B0BDE8F081706810F4407012D09B
:100D0000616801F4407188420DD0706840F2404241
:100D1000C4F24222012320F4407113600023C00773
:100D2000136071603AD17068616820F440700843C4
:100D3000B8F1000F706003D4306820F0805030604C
:100D40002068C10710D1810616D401061CD4C00446
:100D500005D57069616920F48070084370610020D6
:100D600002B0BDE8F08100BF7169A26821F0030103
:100D7000114371618106E8D57169E26821F01001C3
:100D8000114371610106E2D53169226921F4F871DC
:100D900011433161C004DCD4E1E700BFFFF7FCFD83
:100DA000054641F2883700BF70688007BBD4FFF763
:100DB000F3FD401BB8424FF00300F5D9D0E7000027
:100DC000002804BF012070472DE9F04381B042F2B2
:100DD0000008C4F202080446D8F800000D4600F0EE
:100DE000070081420CD9D8F8000020F00700284302
:100DF000C8F80000D8F8000000F00700A8425ED153
:100E0000206841F204098107C4F2020907D5D9F824
:100E10000010A26821F0F0011143C9F80010C007CA
:100E200044D1D8F8000000F0070085420CD2D8F871
:100E3000000020F007002843C8F80000D8F80000A0
:100E400000F00700A8423AD12068410707D5D9F839
:100E50000010E26821F4E0611143C9F800100007B6
:100E600008D5D9F80000216920F4605040EAC1009B
:100E7000C9F80000D9F8002002F00C00082841F25F
:100E80000020C0F27A004DD141F62C43C2F38341D9
:100E9000C0F60003595CD9F82830D20338D440F6A4
:100EA0000010C0F23D0048433CE000BF606859F8C4
:100EB000041C022808D0012826D1890306D4012069
:100EC00001B0BDE8F08300BF8901F8D5D9F8001062
:100ED00021F003010843C9F80000FFF75DFD064655
:100EE00041F28837D9F80000616800F00C00B0EBDF
:100EF000810F96D0FFF750FD801BB842F2D9032036
:100F000001B0BDE8F08300BF8907D8D5DEE700BF98
:100F100003F00F0241F63C43C0F600039A5CB0FBBD
:100F2000F2F04843D9F8001041F61C42C1F3031116
:100F3000C0F60002515C40F21C0220FA01F140F2BE
:100F40000C00C2F200000068C2F200021160FFF75C
:100F500027FE002001B0BDE8F0830000002804BF98
:100F6000012070472DE9F04182B00446007841F23B
:100F70000006C007C4F202060CD0706800F00C0036
:100F8000042840F07F803068800303D56068002823
:100F900000F02E81207880071BD5706810F00C0FB0
:100FA00009D0706800F00C00082840F09F8070683D
:100FB000C00300F19B803068800703D520690128B9
:100FC00040F016813068616920F0F80040EAC10005
:100FD00030602078000713D4207840072AD4E569D0
:100FE000002D00F00081706800F00C00082840F02F
:100FF000BB80012D40F0EC80012002B0BDE8F08103
:10100000A069002800F098800020C4F2422001214D
:10101000C0F88014FFF7C0FC054600BF706A800767
:10102000DAD4FFF7B9FC401B0228F7D9032002B03D
:10103000BDE8F081F0695FEAC00808D4F06940F0CB
:101040008050F061F06900F080500190019847F203
:101050000007C4F200073868C00561D4386840F45E
:1010600080703860FFF798FC054600BF3868C005FF
:1010700056D4FFF791FC401B6428F7D9032002B037
:10108000BDE8F081706800F00C00082803D170689A
:10109000C0033FF578AF61683068B1F5A02F00F06C
:1010A000ED80B1F5803F00F0ED80002920F4803024
:1010B00040F0EC803060306820F480203060F06ACE
:1010C000A16820F00F000843F062FFF765FC0546B9
:1010D000306880037FF55EAFFFF75EFC401B64283D
:1010E0004FF00300F4D902B0BDE8F0812069002878
:1010F00040F20000C4F2422058D001210160FFF705
:101100004BFC0546306880073FF55CAFFFF744FCB9
:10111000401B0228F6D9032002B0BDE8F08100BFD1
:10112000E168306A00296FD0052965D0012940F0B7
:10113000838040F0010085E00020C4F242200021BD
:10114000C0F88014FFF728FC054600BF706A8007CE
:101150007FF542AFFFF720FC401B0228F6D90320A1
:1011600002B0BDE8F08100BF0027C4F24227002092
:101170003866FFF711FC022D05460BD1306880015F
:1011800040F1A080FFF708FC401B02284FF003004D
:10119000F4D9A8E73068800125D5FFF7FDFB401B97
:1011A00002284FF00300F5D99DE700BF0021016040
:1011B000FFF7F2FB054600BF306880077FF509AFF7
:1011C000FFF7EAFB401B02284FF00300F4D98AE73F
:1011D0007068216A00F480328A4209D1616A00F4A1
:1011E0007010884204D1002002B0BDE8F08100BF39
:1011F000012002B0BDE8F08140F004003062306AA6
:1012000040F001001EE000BF20F001003062306AB3
:1012100020F004003062FFF7BFFB054641F288373B
:10122000306A800720D5FFF7B7FB401BB8424FF06C
:101230000300F5D957E700BF20F001003062306AA3
:1012400020F004003062FFF7A7FB054641F2883723
:10125000306A800708D4FFF79FFB401BB842F7D9DC
:10126000032002B0BDE8F081B8F1000F3FF5B7AE42
:10127000F06920F08050F061B1E600BF40F48020BA
:101280003060306840F4803004E000BF3060306887
:1012900020F480203060F06AA16820F00F0008433D
:1012A000F062FFF779FB0546306880033FF572AEC8
:1012B000FFF772FB401B6428F6D9032002B0BDE89B
:1012C000F08100BF7068D4E9081220F47410104354
:1012D0000843706001203866FFF75EFB044600BFDC
:1012E000306880013FF57FAFFFF756FB001B0228F7
:1012F0004FF00300F4D9F6E6002804BF0120704740
:10130000416A19B100210161142104E04168B1F57D
:10131000827F02D01C2100224250B0B50025856298
:1013200090F85D1029B980F85C50044600F052F83E
:101330002046022180F85D100168D0F80CE00B68AF
:10134000BEF5E06F23F040030B6098BF01254EF41B
:101350000063B3F5706F4FEA053C1CBF0025856242
:10136000D0E90154D0E9043205F4827504F4044450
:101370002C4403F002032344846902F00102C5698E
:101380001A4404F400731A4405F03803056A1A4439
:1013900005F08003856A1A4405F400531A430A6075
:1013A0000422436A0EF4706502EA1442446B45EA73
:1013B0000C0503F010032A4304F008041A432243E7
:1013C0004A6000210122016680F85D20BDE8B0403E
:1013D0000846704780B586B0006843F20002C4F248
:1013E000010200219042CDE90411CDE902110191E1
:1013F00002D006B080BD00BF41F21400C4F202006A
:10140000426842F480524260426802F48052009284
:10141000009A026842F400320260006800F4003072
:1014200000900098E02001900220CDE90201032005
:1014300004900520059001A94FF09040FFF7CEF9E8
:1014400006B080BD411E0020B0EB116F1CBF012013
:1014500070474EF21002CEF2000251604EF6235158
:10146000CEF20001F0230B700721906011607047ED
:10147000FEE7000041F21400C4F20200816841F06E
:1014800001018160016841F4003101604FF090403A
:10149000016821F400510160016841F4805101604C
:1014A0000C20C4F60000016841F4005101604FF0C7
:1014B0008040016801600421C4F200010A680A60EA
:1014C0004A684A608A6842F001028A60CA68CA6053
:1014D0000A690A614A694A618A698A61CA69CA6194
:1014E0000A6A0A620A224A6240F20402C2F2000256
:1014F00012688A620A6B0A634A6B4A638A6B8A6360
:10150000CA6BCA634A6C4A648A6C8A64016841F097
:10151000010101604EF20010CEF200004FF0805148
:1015200001607047FEE70000FEE700007047000022
:1015300041F21400C4F20200816841F002018160AE
:10154000016841F4003101604FF09040016821F4DE
:1015500000610160016841F4806101600C20C4F603
:101560000000016841F40061016040F20040C4F2F3
:101570000000016801604168416081688160C16864
:1015800041F00101C1600169016141694161816905
:101590008161C169C161016A0162416A41620A21D6
:1015A000816240F20001C2F200010968C162416B30
:1015B0004163816B8163C16BC163016C0164816CA8
:1015C0008164C16CC164016841F0010101604EF2A7
:1015D0000010CEF200004FF0005101607047000093
:1015E0007047000040F28800C2F200000168C1F1BB
:1015F00001010160FFF7B2BAB0B596B00024012036
:10160000CDE91144CDE90F441090102011904FF412
:101610006010022515900CA8CDE90D440694CDE983
:101620000444CDE902440C95CDE91354FFF796FC30
:1016300020B1EFF3108072B6FEE700BF0F20CDE9B6
:1016400007054FF48060CDE90A0407A80221099438
:10165000FFF7B6FB20B1EFF3108072B6FEE700BFD4
:10166000202001900020049001A8FFF713FB28B16F
:10167000EFF3108072B600BFFEE700BF802001903C
:101680004FF48070059001A8FFF704FB20B1EFF341
:10169000108072B6FEE700BF16B0B0BD4EF688509F
:1016A000CEF20000016841F4700101607047000053
:1016B00044F21000C4F2010002680168920719D4D4
:1016C00021F0040140F260120160C2F20002816A5E
:1016D0001268914226D140F21841C4F600014FF43D
:1016E00000120A6040F25811C2F2000109688162DA
:1016F000704700BF21F0020140F264120160C2F2A3
:101700000002416A126891421CD140F21841C4F6AD
:10171000000102220A6040F25C11C2F20001096875
:101720004162704740F25811C2F20001806A0968B4
:10173000884218BF704740F21840C4F600002021CC
:101740000160704740F25C12C2F20002416A126806
:101750009142F6D140F21841C4F600014FF4003234
:101760000A6050F8101C21F0010140F8101C002103
:101770004161704744F21040C4F201000168C9079A
:1017800003D0016821F0010101600168890732D5A9
:10179000016821F002010160426A40F21441B2F591
:1017A000F27FC4F600010BDC052A17D040F2DB13F0
:1017B0009A4220D10A6840F2E51342F0100218E084
:1017C00040F2E5139A420FD040F2BB339A4218BF61
:1017D00070470A68052322F008020AE00A6840F20E
:1017E000DB1322F0100204E00A6840F2BB3342F03F
:1017F00008020A604362704780B51020C4F20000FE
:101800000121016040F2940040F2100140F2140CFA
:10181000C2F20000C2F20001C4F6000C09680068C0
:10182000DCF80030C1F5006E01F5006183F0400284
:1018300088421146B8BF23F020017045D8BF114639
:10184000CCF8001080BD000080B540F21040C4F21A
:1018500000000121016040F2900040F2180140F2C6
:10186000140CC2F20000C2F20001C4F6000C0968B8
:101870000068DCF80030C1F5006E01F5006183F00E
:10188000200288421146B8BF23F020017045D8BF1E
:101890001146CCF8001080BDFEE7000082B045F292
:1018A0000046C4F20006FFF767F9FFF7A5FE41F214
:1018B0001400C4F20200016840F2880541F40031CE
:1018C00001600168C2F2000501F400310191019943
:1018D0000168002241F480210160006841F62B512B
:1018E00000F4802000900098284640F8106FC0F265
:1018F000200100F1040C01238CE80E00C0E9042251
:10190000C0E906220262FFF797F828B1EFF31080D2
:1019100072B600BFFEE700BF05F1100420460021AB
:10192000FFF740F820B1EFF3108072B6FEE700BF7A
:10193000204600210024FFF75BF828B1EFF3108068
:1019400072B600BFFEE700BF40F2F40006F55C414E
:10195000C2F200004FF482724FF440734FF40077EC
:10196000102680E8160007210822C0E90334C0E9E8
:101970000547C661C0E90844C0E90A41C0E90C4214
:10198000FFF7BAFC20B1EFF3108072B6FEE700BF9C
:101990002C24C4F2000400F0AFF800F04FF800F07F
:1019A00003F9FEF793FDFEF745FEFEF7C5FEFFF7D0
:1019B000BFFDFFF75FFDFEF7ABFC4EF21000CEF26D
:1019C0000000016840F2000741F0030101604CF2A1
:1019D0000041C0F209014FF00108C2F200070026E1
:1019E000416000BF286808B96868A8B12868012864
:1019F000F8D168680128F5D10220FEF735FDE860CE
:101A00007868E96801EB410100EBC100A0F54040B6
:101A100020606E60E6E700BF0120FEF725FDA860AC
:101A20003868A96800EB8100A0F50050C4F80004F4
:101A3000C5F8048028680128D4D1DAE741F21400FF
:101A4000C4F20200016840F2140C41F480210160EC
:101A500040F20041C4F600010A68C2F2000C42F0F4
:101A600004020A600A6822F008020A600A6842F466
:101A700080620A600A6822F400620A6041684FF6D8
:101A8000FF7241F48031416044F20400C4F201006D
:101A90000168016041684160816841F00601816030
:101AA000C168C1600169016141694161C169C16188
:101AB000002101624162826240F22002C162C2F2F0
:101AC00000021268DCF80030D11702EB917103EBD1
:101AD000A1010163DCF800104163016C0164416CF9
:101AE0004164816C81644EF20010CEF200004FF030
:101AF000807101607047000041F21400C4F20200DE
:101B00004168092241F400314160016841F48021BB
:101B1000016040F20040C4F60000016841F040015D
:101B20000160016821F080010160016841F4807169
:101B30000160016821F4007101604FF400218161AE
:101B40001021816144F20040C4F20100416841600B
:101B5000C16841F00301C1600169016141694161EE
:101B600081698161016A41F00101016200214162E4
:101B700082624FF47072C262016305214163416C5D
:101B80004FF000724164816C8164C16CC164016D6D
:101B900001654EF20011CEF200010A60016841F0C9
:101BA000010101607047000041F21400C4F202001C
:101BB00041684FF6FF7241F480214160016841F4B1
:101BC0008021016044F60400C4F201000168016054
:101BD00081688160C168C1600169016141694161D9
:101BE000C169C1610021016241628262C162016317
:101BF000016C0164416C4164816C8164C16CC1649D
:101C00007047F1EE100A4FF6FF71C0F2C03120EAC2
:101C1000010040F04070E1EE100A70470000000043
:101C2000000000000102030406070809020304057E
:101C3000060708090A0B0C0D0E0F10100102030411
:101C400005060708090A0B0C0D0E0F10701C000882
:101C50000000002028000000EC010008981C00088B
:101C600028000020480700000C02000800000000C7
:101C7000E025000005000000010000001000000049
:101C80001E000000E80300001E00000000127A00A1
:081C90007017000000000000C5
:040000050800018965
:00000001FF
