:020000040800F2
:100000008007002055020008951400088D14000890
:1000100091140008910400089D18000800000000D9
:100020000000000000000000000000009D14000817
:10003000E50400080000000099140008A11400085D
:100040006F0200086F0200086F0200086F020008CC
:100050006F0200086F02000861050008F906000839
:10006000D50700086F0200086F0200086F02000841
:100070006F0200086F0200086F0200086F0200089C
:100080006F0200086F020008110300086F020008E9
:100090006F0200086F0200086F0200086F0200087C
:1000A00091150008551600086F0200086F0200083D
:1000B0006F0200086F020008000000006F020008D5
:1000C0006F02000800000000000000006F0200083E
:1000D000000000006F0200086F0200086F020008B5
:1000E0006F0200086F02000800000000000000001E
:1000F0000000000000000000000000000000000000
:1001000000000000000000000000000000000000EF
:100110000000000000000000391700080D1800085A
:1001200000000000000000000000000000000000CF
:1001300000000000000000000000000000000000BF
:100140006F0200086F0200080000000000000000BD
:10015000000000000000000000000000000000009F
:10016000000000000000000000000000000000008F
:10017000000000000000000000000000000000007F
:10018000000000006F02000800F002F800F052F8D2
:1001900014A696E8000CB244B344DA4501D100F04D
:1001A00049F8BAE80F000FA696E83000A5EB040561
:1001B00004EB0607AAEB0704A7F101074FEA1515A0
:1001C0004FEA3414A4F10104AC4201D300F032F838
:1001D00013F0010F18BFFB1A43F0010300F001F800
:1001E000DBE71847581A0000781A0000103A24BFBD
:1001F00078C878C1FAD8520724BF30C830C144BF8C
:1002000004680C6070470000704700000023002461
:1002100000250026103A28BF78C1FBD8520728BF16
:1002200030C148BF0B6070471FB501F0E2FC1FBD35
:1002300010B510BD00F031F81146FFF7F5FF01F0E1
:100240002FFB00F04FF803B4FFF7F2FF03BC00F000
:1002500057F800000948804709480047FEE7FEE7D5
:10026000FEE7FEE7FEE7FEE7FEE7FEE7FEE7FEE766
:1002700004480549054A064B704700007D150008F3
:1002800089010008800100208007002080030020F1
:1002900080030020704770477047754600F02CF8C7
:1002A000AE4605006946534620F00700854618B063
:1002B00020B5FFF7DDFFBDE820404FF000064FF00E
:1002C00000074FF000084FF0000BAC46ACE8C00947
:1002D000ACE8C009ACE8C009ACE8C00921F00701EE
:1002E0008D46704710B50446AFF300802046BDE848
:1002F0001040FFF7A8BF0000004870473000002002
:1003000001491820ABBEFEE726000200704700003E
:1003100030214FF0A0400422C5F2000102600868BD
:10032000400640F2E800C2F2000019D58268072AB0
:1003300008DC0A6903681A44A2F500620260826858
:1003400001320CE00268D31702EB537240F21C0337
:10035000D210C2F200031A60002202600122826001
:100360000A68120658BF7047C268072A0ADC096982
:1003700042681144A1F500614160C1680131C1606A
:10038000704700BF4168CA1701EB527140F210027A
:10039000C910C2F200021160002141600121C16058
:1003A0007047000041F21401C4F20201086840F4F1
:1003B00000300860086840F0805008604FF09040BE
:1003C000026842F00F0202608A69082042F49072CB
:1003D000C5F200008A61D0F8001321F44031C0F862
:1003E0000013016821F040510160016841F0805123
:1003F0000160416821F018014160416821F020014D
:100400004160416821F4005141604FF0A0410A6809
:1004100042F001020A60026842F0010202600A68CA
:10042000D20709D10A68D20704BF0A685FEAC2721C
:1004300002D10A68D207F2D050F8041C41F004013E
:1004400040F8041C4EF21240CEF200002021017050
:100450004EF20010CEF200004FF480210160704790
:100460003021C5F20001002201280A6004D00228D0
:1004700006D1802001E000BF40200A6810430860D8
:1004800051F8280C40F0040041F8280C7047000097
:10049000FEE7000041F21400C4F20200816841F05E
:1004A00000518160016841F4003101604FF09040DB
:1004B000016841F480610160016841F400610160FC
:1004C00047F20040C4F20000016841F038010160C9
:1004D000416841604FF48A618160016841F0010127
:1004E000016070477047000041F21400C4F202003E
:1004F000016841F480010160416841F001014160FF
:1005000041F20040C4F60000016821F001010160E1
:10051000016821F002010160C16841F00101C16080
:10052000C16821F00201C1600820C4F20100016825
:1005300041F005010160D0F8F81341F00101C0F865
:10054000F81340F20C40C4F20100016841F00101CF
:1005500001604EF20010CEF20000402101607047B1
:1005600010B540F21440C4F20100016840F20012DC
:1005700041F001010160C2F20002136844F6000478
:1005800040F22C0EC4F20104012BC2F2000E07D07F
:10059000B3B9236843F00103236001230FE000BFD8
:1005A00044F6240CC4F2010CDCF80030CEF8003024
:1005B000236823F0010323600023CCF8003013608C
:1005C00040F21802C2F2000213684FF63800CFF66C
:1005D000FF7023504FF60000CFF6FF70235843F012
:1005E00001032350DEF800001368C11700EB91707F
:1005F0004FF6340103EBA000CFF6FF716050106896
:1006000040F27411DEF80020C2F200010860D11738
:1006100002EB917140F2781300EBA101C2F20003EA
:10062000196002EB4201CB1701EB937140F270139A
:1006300000EBA101C2F20003196002EBD27100EBE2
:10064000610040F26C11C2F20001086010BD0000B0
:1006500041F21400C4F20200016841F4800101601B
:10066000016841F480210160416841F0010141606D
:1006700041F20040C4F60000016821F0040101606D
:10068000016821F008010160C16841F00401C16006
:10069000C16821F00801C1600820C4F201000168AE
:1006A00041F050010160D0F8F81341F00201C0F8A8
:1006B000F81340F20C40C4F20100016841F002015D
:1006C000016040F20040C4F60000016821F0010121
:1006D0000160016821F002010160C16841F001017F
:1006E000C160C16821F00201C1604EF20010CEF27B
:1006F000000080210160704740F21440C4F2010004
:10070000016841F00201016040F20410C2F20000F1
:100710000068012812D0002818BF704740F210402E
:10072000C4F60000026840F21800C2F2000001683E
:10073000D2070CBF023902310160704740F210410C
:1007400047F20840C4F60001C4F200000A680168DC
:10075000D2070CBF053905310160704741F2140022
:10076000C4F20200016841F400310160416841F0C7
:10077000010141604FF09040016821F010010160DB
:10078000016821F0200101600C20C4F6000001681E
:1007900041F010010160016821F020010160082092
:1007A000C4F2010001680160D0F8F81341F00401BF
:1007B000C0F8F81340F20C40C4F20100016841F0A7
:1007C000040101604EF20010CEF200004FF480717F
:1007D0000160704740F21440C4F20100016841F02A
:1007E0000401016040F20410C2F200000168C1F18E
:1007F00001010160704700002DE9F04F83B00C68E3
:10080000002C00F0D38040F2004E00F1200240F6B0
:100810000047C4F2010E0192C4F60007052200252C
:100820004FF0000B4FF00008B84208BF03220092BF
:100830004AE000BF40F60002C4F60002009E90426B
:1008400008BF022605F00C030F279F402CEA07077C
:1008500006FA03F34FEA98023B4344F82230DEF8ED
:1008600008204B6842EA0A0740F20C44DE0258BFF7
:1008700022EA0A07CEF80870C4F2010422689E0238
:1008800042EA0A0758BF22EA0A072760DEF8042076
:100890009E0342EA0A0758BF22EA0A07CEF804700C
:1008A000DEF80020DB0342EA0A0758BF22EA0A0703
:1008B000CEF800700C6808F1010834FA08F20BF168
:1008C000020B05F1040571D0012202FA08FC14EABA
:1008D0000C0AEFD04F68032207F00304661E02FAE9
:1008E0000BF2012E6FEA020912D88268CE6802EA82
:1008F000090206FA0BF6324382604268C7F300161B
:1009000022EA0C0206FA08F63243426004E000BF15
:10091000032C01D103241EE0C2688E6802EA09029A
:1009200006FA0BF63243022CC26014D16FF00302B8
:10093000019C02EA580205F01C060F2354F802C07D
:1009400003FA06F70B692CEA0707B3403B43A350B1
:100950004F6807F00304026804FA0BF302EA090285
:100960001A4317F4403F0260A4D041F21803C4F2C6
:1009700002031A68AEF57E7442F001021A601A682A
:10098000B0F1904F02F001020292029A28F00302A5
:1009900054F802C008D040F20042C4F6000290426F
:1009A0007FF448AF01264DE700264BE703B0BDE8D2
:1009B000F08F000040F27C10C2F200000068704727
:1009C00090F84120202A03D190F84020012A01D13B
:1009D00002207047242280F841200268136823F027
:1009E00001031360136823F48053136013681943E1
:1009F0001160116841F001011160202180F841105F
:100A0000002180F8401000207047000090F841203D
:100A1000202A03D190F84020012A01D102207047FA
:100A2000242280F841200268136823F00103136038
:100A3000136823F4706343EA01211160116841F0E7
:100A400001011160202180F84110002180F8401040
:100A500000207047002804BF0120704710B590F8AF
:100A6000411031B9002180F84010044600F04AF8E6
:100A70002046242180F8411090E81210C3680A68CB
:100A8000012B22F001020A6024F070620A618A6878
:100A900022F400428A6003D14CF400428A6009E0EB
:100AA0004CF40442022B8A6004D14A6842F400628A
:100AB00003E000BF4A6822F400624A604A6800F11D
:100AC000100C42F0007242F400424A60CA6822F4FC
:100AD0000042CA609CE81C101A4342EA0422CA6021
:100AE000026A42EA0C020A600A6842F001020A60E5
:100AF00000212022416480F84120016380F84210E7
:100B0000002010BD10B586B0006845F20042C4F266
:100B1000000200219042CDE90411CDE902110191BA
:100B200002D006B010BD00BF41F21404C4F20204AA
:100B3000206840F480202060206800F4802000902D
:100B40000098C02001901220CDE9020103200490FA
:100B50000420059040F20040C4F6000001A9FFF710
:100B60004BFEA06840F40010A060A06800F40010E4
:100B70000090009806B010BD40F2000040F27C11D9
:100B8000C2F20000C2F2000100780A681044086056
:100B90007047000080B542F20000C4F20200016814
:100BA00041F010010160032000F072F8002000F015
:100BB00005F800F027F8002080BD000070B540F275
:100BC0000006C2F2000640F224013278C2F20001AF
:100BD0004FF47A730968B3FBF2F20446B1FBF2F109
:100BE000084600F03DFC0F2C4FF0010508D838B93D
:100BF0004FF0FF3021460022002500F01DF8746000
:100C0000284670BD82B041F21800C4F202000168AB
:100C100041F001010160016801F0010101910199B8
:100C2000416841F080514160406800F08050009080
:100C3000009802B07047000010B54EF60C5CCEF282
:100C4000000CDCF80030C3F3022E8EF00704042CF5
:100C500028BF0424BEF103034FF0FF3E0EFA04F454
:100C600038BF0023A14399400EFA03F39A4311437E
:100C700000F00F0200F160430901043A03F56443F8
:100C80006244002848BF02F10C03197010BD000037
:100C90004EF60C51CEF200010A684FF6FF031A40DF
:100CA00060F30A2242F0806040F0FD7008607047F7
:100CB0002DE9F04182B00446807841F21C06C0075D
:100CC000C4F202064AD030685FEAC00808D430682F
:100CD00040F080503060306800F080500190019802
:100CE00047F20007C4F200073868C00512D438681C
:100CF00040F480703860FFF75DFE05463868C00537
:100D000008D4FFF757FE401B6428F7D9032002B030
:100D1000BDE8F081706810F4407012D0616801F491
:100D2000407188420DD0706840F24042C4F24222C5
:100D3000012320F4407113600023C0071360716029
:100D40003AD17068616820F440700843B8F1000F30
:100D5000706003D4306820F0805030602068C10794
:100D600010D1810616D401061CD4C00405D57069C3
:100D7000616920F4807008437061002002B0BDE812
:100D8000F08100BF7169A26821F003011143716114
:100D90008106E8D57169E26821F0100111437161A3
:100DA0000106E2D53169226921F4F87111433161FC
:100DB000C004DCD4E1E700BFFFF7FCFD054641F2CB
:100DC000883700BF70688007BBD4FFF7F3FD401B76
:100DD000B8424FF00300F5D9D0E70000002804BF67
:100DE000012070472DE9F04381B042F20008C4F2BF
:100DF00002080446D8F800000D4600F007008142C2
:100E00000CD9D8F8000020F007002843C8F80000EB
:100E1000D8F8000000F00700A8425ED1206841F237
:100E200004098107C4F2020907D5D9F80010A268A5
:100E300021F0F0011143C9F80010C00744D1D8F8DF
:100E4000000000F0070085420CD2D8F8000020F026
:100E500007002843C8F80000D8F8000000F0070099
:100E6000A8423AD12068410707D5D9F80010E268B6
:100E700021F4E0611143C9F80010000708D5D9F842
:100E80000000216920F4605040EAC100C9F8000068
:100E9000D9F8002002F00C00082841F20020C0F22E
:100EA0007A004DD141F61C43C2F38341C0F60003E2
:100EB000595CD9F82830D20338D440F60010C0F27B
:100EC0003D0048433CE000BF606859F8041C02281C
:100ED00008D0012826D1890306D4012001B0BDE83D
:100EE000F08300BF8901F8D5D9F8001021F0030183
:100EF0000843C9F80000FFF75DFD064641F2883758
:100F0000D9F80000616800F00C00B0EB810F96D0BA
:100F1000FFF750FD801BB842F2D9032001B0BDE8B5
:100F2000F08300BF8907D8D5DEE700BF03F00F02CA
:100F300041F62C43C0F600039A5CB0FBF2F0484344
:100F4000D9F8001041F60C42C1F30311C0F60002BB
:100F5000515C40F2240220FA01F140F20400C2F296
:100F600000000068C2F200021160FFF727FE0020B7
:100F700001B0BDE8F0830000002804BF01207047E5
:100F80002DE9F04182B00446007841F20006C00726
:100F9000C4F202060CD0706800F00C00042840F087
:100FA0007F803068800303D56068002800F02E81C0
:100FB000207880071BD5706810F00C0F09D070687E
:100FC00000F00C00082840F09F807068C00300F11A
:100FD0009B803068800703D52069012840F0168186
:100FE0003068616920F0F80040EAC1003060207884
:100FF000000713D4207840072AD4E569002D00F0BB
:101000000081706800F00C00082840F0BB80012DC2
:1010100040F0EC80012002B0BDE8F081A06900281A
:1010200000F098800020C4F242200121C0F8801412
:10103000FFF7C0FC054600BF706A8007DAD4FFF7EF
:10104000B9FC401B0228F7D9032002B0BDE8F081AB
:10105000F0695FEAC00808D4F06940F08050F061A0
:10106000F06900F080500190019847F20007C4F247
:1010700000073868C00561D4386840F48070386073
:10108000FFF798FC054600BF3868C00556D4FFF747
:1010900091FC401B6428F7D9032002B0BDE8F08121
:1010A000706800F00C00082803D17068C0033FF599
:1010B00078AF61683068B1F5A02F00F0ED80B1F530
:1010C000803F00F0ED80002920F4803040F0EC807B
:1010D0003060306820F480203060F06AA16820F031
:1010E0000F000843F062FFF765FC05463068800397
:1010F0007FF55EAFFFF75EFC401B64284FF00300F6
:10110000F4D902B0BDE8F0812069002840F2000067
:10111000C4F2422058D001210160FFF74BFC054684
:10112000306880073FF55CAFFFF744FC401B0228A6
:10113000F6D9032002B0BDE8F08100BFE168306A53
:1011400000296FD0052965D0012940F0838040F047
:10115000010085E00020C4F242200021C0F8801484
:10116000FFF728FC054600BF706A80077FF542AF95
:10117000FFF720FC401B0228F6D9032002B0BDE88F
:10118000F08100BF0027C4F2422700203866FFF735
:1011900011FC022D05460BD13068800140F1A08082
:1011A000FFF708FC401B02284FF00300F4D9A8E722
:1011B0003068800125D5FFF7FDFB401B02284FF06A
:1011C0000300F5D99DE700BF00210160FFF7F2FBA6
:1011D000054600BF306880077FF509AFFFF7EAFBDF
:1011E000401B02284FF00300F4D98AE77068216A97
:1011F00000F480328A4209D1616A00F4701088429A
:1012000004D1002002B0BDE8F08100BF012002B08F
:10121000BDE8F08140F004003062306A40F0010027
:101220001EE000BF20F001003062306A20F00400B0
:101230003062FFF7BFFB054641F28837306A80070E
:1012400020D5FFF7B7FB401BB8424FF00300F5D99C
:1012500057E700BF20F001003062306A20F0040040
:101260003062FFF7A7FB054641F28837306A8007F6
:1012700008D4FFF79FFB401BB842F7D9032002B008
:10128000BDE8F081B8F1000F3FF5B7AEF06920F08E
:101290008050F061B1E600BF40F4802030603068DB
:1012A00040F4803004E000BF3060306820F48020DB
:1012B0003060F06AA16820F00F000843F062FFF789
:1012C00079FB0546306880033FF572AEFFF772FB8D
:1012D000401B6428F6D9032002B0BDE8F08100BFAE
:1012E0007068D4E9081220F4741010430843706049
:1012F00001203866FFF75EFB044600BF30688001BE
:101300003FF57FAFFFF756FB001B02284FF00300AD
:10131000F4D9F6E6002804BF01207047416A19B1EC
:1013200000210161142104E04168B1F5827F02D0FF
:101330001C2100224250B0B50025856290F85D1056
:1013400029B980F85C50044600F052F8204602218A
:1013500080F85D100168D0F80CE00B68BEF5E06F16
:1013600023F040030B6098BF01254EF40063B3F5F2
:10137000706F4FEA053C1CBF00258562D0E901541F
:10138000D0E9043205F4827504F404442C4403F0DB
:1013900002032344846902F00102C5691A4404F47B
:1013A00000731A4405F03803056A1A4405F08003F7
:1013B000856A1A4405F400531A430A600422436AFA
:1013C0000EF4706502EA1442446B45EA0C0503F022
:1013D00010032A4304F008041A4322434A60002100
:1013E0000122016680F85D20BDE8B04008467047E4
:1013F00080B586B0006843F20002C4F20102002109
:101400009042CDE90411CDE90211019102D006B05C
:1014100080BD00BF41F21400C4F20200426842F4F1
:1014200080524260426802F480520092009A026840
:1014300042F400320260006800F40030009000982E
:10144000E02001900220CDE9020103200490052054
:10145000059001A94FF09040FFF7CEF906B080BD8E
:10146000411E0020B0EB116F1CBF012070474EF2EF
:101470001002CEF2000251604EF62351CEF200016E
:10148000F0230B700721906011607047FEE70000A9
:10149000FEE70000FEE70000704700007047000014
:1014A00080B540F22800C2F20000016802680129FC
:1014B00018BF4FF0FF31114401600068C0B2FEF761
:1014C000CFFF40F29000C2F2000001210160BDE8B0
:1014D0008040FFF751BB0000B0B596B0002401205A
:1014E000CDE91144CDE90F441090102011904FF434
:1014F0006010022515900CA8CDE90D440694CDE9A5
:101500000444CDE902440C95CDE91354FFF734FDB2
:1015100020B1EFF3108072B6FEE700BF0F20CDE9D7
:1015200007054FF48060CDE90A0407A80221099459
:10153000FFF754FC20B1EFF3108072B6FEE700BF56
:10154000202001900020049001A8FFF7B1FB28B1F2
:10155000EFF3108072B600BFFEE700BF802001905D
:101560004FF48070059001A8FFF7A2FB20B1EFF3C4
:10157000108072B6FEE700BF16B0B0BD4EF68850C0
:10158000CEF20000016841F4700101607047000074
:1015900044F21000C4F2010002680168920719D4F5
:1015A00021F0040140F274120160C2F20002816A6B
:1015B0001268914226D140F21841C4F600014FF45E
:1015C00000120A6040F26C11C2F2000109688162E7
:1015D000704700BF21F0020140F278120160C2F2B0
:1015E0000002416A126891421CD140F21841C4F6CF
:1015F000000102220A6040F27011C2F20001096883
:101600004162704740F26C11C2F20001806A0968C1
:10161000884218BF704740F21840C4F600002021ED
:101620000160704740F27012C2F20002416A126813
:101630009142F6D140F21841C4F600014FF4003255
:101640000A6050F8101C21F0010140F8101C002124
:101650004161704744F21040C4F201000168C907BB
:1016600003D0016821F0010101600168890732D5CA
:10167000016821F002010160426A40F21441B2F5B2
:10168000F27FC4F600010BDC052A17D040F2DB1311
:101690009A4220D10A6840F2E51342F0100218E0A5
:1016A00040F2E5139A420FD040F2BB339A4218BF82
:1016B00070470A68052322F008020AE00A6840F22F
:1016C000DB1322F0100204E00A6840F2BB3342F060
:1016D00008020A604362704741F21C00C4F2020033
:1016E000016841F01001016041F20000C4F2000005
:1016F00041684160C16841F00101C1600169016157
:10170000416A41621421816240F20C01C2F200017F
:101710000968C162016841F0010101604EF2364082
:10172000CEF20000202101704EF20410CEF2000033
:101730004FF480010160704741F21001C4F20001D2
:10174000086840F2200220F00100086040F21C000E
:10175000C2F20002C2F200001368026858428242DC
:1017600040F2FC00C2F2000004DD9A4202DA0021DD
:101770000AE000BF40F20C03C2F200031B681A44E7
:10178000CA610168C1F10101016040F2F800C2F2D2
:10179000000014220068C4F600021368084323F016
:1017A000200008BF203010607047000041F21C008C
:1017B000C4F20200016841F02001016041F20040E2
:1017C000C4F2000041684160C16841F00101C1609C
:1017D00001690161416A41620721816240F20801A9
:1017E000C2F200010968C162016841F001010160B3
:1017F0004EF23740CEF20000202101704EF204106C
:10180000CEF200004FF400010160704741F2104039
:10181000C4F20000016840F2140221F001010160ED
:1018200040F21001C2F20002C2F20001126809681F
:101830005342994208DD914206DA40F2F801C2F2C1
:1018400000010020086015E040F2F80C40F20802A8
:10185000C2F2000CC2F20002DCF800301268C3F1E0
:1018600001031144CCF80030C161DCF8000000280D
:1018700018BF012040F2FC011422C2F20001C4F69C
:10188000000209681368C00723F02003184608BF48
:101890002030002918BF184610607047FEE700008E
:1018A00082B045F20046C4F20006FFF773F9FFF775
:1018B00013FE41F21400C4F20200016840F29005E8
:1018C00041F4003101600168C2F2000501F4003109
:1018D000019101990168002241F4802101600068B2
:1018E00041F62B5100F4802000900098284640F8E3
:1018F000046FC0F2200100F1040C01238CE80E00FB
:10190000C0E90422C0E906220262FFF7A3F828B169
:10191000EFF3108072B600BFFEE700BF2C1D20461B
:101920000021FFF74DF828B1EFF3108072B600BF29
:10193000FEE700BF204600210024FFF767F828B12A
:10194000EFF3108072B600BFFEE700BF40F2081050
:1019500006F55C41C2F200004FF4827280E8160086
:1019600000F114014FF440734FF400764FF0100C67
:1019700081E8501007210822C0E90334C0E9084477
:10198000C0E90A41C0E90C42FFF7C4FC20B1EFF303
:10199000108072B6FEE700BF00F092F800F032F857
:1019A00000F0E6F8FEF7A0FDFEF752FEFEF7D6FEC9
:1019B0004EF21000CEF20000016841F00301016018
:1019C0004EF20021C0F204014160FEF7EBFCFEF78D
:1019D00061FDFFF781FEFFF7E9FE00F0F7F8002058
:1019E0002968002918BF28602968002918BF2860C5
:1019F0002968002918BF28602968002918BF2860B5
:101A0000EEE7000041F21400C4F20200016840F267
:101A1000180C41F48021016040F20041C4F600013D
:101A20000A68C2F2000C42F004020A600A6822F05E
:101A300008020A600A6842F480620A600A6822F4B6
:101A400000620A6041684FF6FF7241F480314160E4
:101A500044F20400C4F20100016801604168416081
:101A6000816841F006018160C168C160016901615E
:101A700041694161C169C1610021016241628262C3
:101A800040F22C02C162C2F200021268DCF800309F
:101A9000D11702EB917103EBA1010163DCF8001097
:101AA0004163016C0164416C4164816C81644EF25C
:101AB0000010CEF200004FF080710160704700000E
:101AC00041F21400C4F202004168092241F40031DD
:101AD0004160016841F48021016040F20040C4F699
:101AE0000000016841F040010160016821F08001BF
:101AF0000160016841F480710160016821F40071A6
:101B000001604FF4002181611021816144F20040A5
:101B1000C4F2010041684160C16841F00301C16045
:101B2000016901614169416181698161016A41F035
:101B3000010101620021416282624FF47072C2624F
:101B4000016305214163416C4FF000724164816C77
:101B50008164C16CC164016D01654EF20011CEF269
:101B600000010A60016841F0010101607047000056
:101B700041F21400C4F2020041684FF6FF7241F4D2
:101B800080214160016841F48021016044F6040035
:101B9000C4F201000168016081688160C168C160B0
:101BA0000169016141694161C169C161002101624D
:101BB00041628262C1620163016C0164416C4164F3
:101BC000816C8164C16CC1647047000041F21400F3
:101BD000C4F20200016841F4003101604FF090400E
:101BE000016841F480610160016821F400610160D5
:101BF0007047F1EE100A4FF6FF71C0F2C03120EAD3
:101C0000010040F04070E1EE100A70470000000053
:101C1000000000000102030406070809020304058E
:101C2000060708090A0B0C0D0E0F10100102030421
:101C300005060708090A0B0C0D0E0F10601C0008A2
:101C40000000002030000000EC010008901C00089B
:101C500030000020500700000C02000800000000C7
:101C6000010000001000000088130000282300007D
:101C7000D007000050000000E8030000D00700007B
:101C80005000000000127A000100000070170000F0
:040000050800018965
:00000001FF
