:020000040800F2
:100000009007002055020008B1140008A914000848
:10001000AD140008AD040008E1180008000000005D
:10002000000000000000000000000000B9140008FB
:100030000105000800000000B5140008BD14000808
:100040006F0200086F0200086F0200086F020008CC
:100050006F0200086F0200087D0500081507000800
:10006000F10700086F0200086F0200086F02000825
:100070006F0200086F0200086F0200086F0200089C
:100080006F0200086F0200082D0300086F020008CD
:100090006F0200086F0200086F0200086F0200087C
:1000A000D1150008951600086F0200086F020008BD
:1000B0006F0200086F020008000000006F020008D5
:1000C0006F02000800000000000000006F0200083E
:1000D000000000006F0200086F0200086F020008B5
:1000E0006F0200086F02000800000000000000001E
:1000F0000000000000000000000000000000000000
:1001000000000000000000000000000000000000EF
:100110000000000000000000791700084D180008DA
:1001200000000000000000000000000000000000CF
:1001300000000000000000000000000000000000BF
:100140006F0200086F0200080000000000000000BD
:10015000000000000000000000000000000000009F
:10016000000000000000000000000000000000008F
:10017000000000000000000000000000000000007F
:10018000000000006F02000800F002F800F052F8D2
:1001900014A696E8000CB244B344DA4501D100F04D
:1001A00049F8BAE80F000FA696E83000A5EB040561
:1001B00004EB0607AAEB0704A7F101074FEA1515A0
:1001C0004FEA3414A4F10104AC4201D300F032F838
:1001D00013F0010F18BFFB1A43F0010300F001F800
:1001E000DBE718479C2B0000BC2B0000103A24BF13
:1001F00078C878C1FAD8520724BF30C830C144BF8C
:1002000004680C6070470000704700000023002461
:1002100000250026103A28BF78C1FBD8520728BF16
:1002200030C148BF0B6070471FB502F030FD1FBDE5
:1002300010B510BD00F044F81146FFF7F5FF01F0CE
:1002400053FB00F062F803B4FFF7F2FF03BC00F0C9
:1002500065F800000948804709480047FEE7FEE7C7
:10026000FEE7FEE7FEE7FEE7FEE7FEE7FEE7FEE766
:1002700004480549054A064B70470000BD150008B3
:1002800089010008900100209007002090030020C1
:100290009003002070477047704710B500F008F8D1
:1002A000006810BD10B5044600F002F8046010BDEF
:1002B00000487047280000200048704728000020B0
:1002C0007546FFF7F9FFAE4605006946534620F034
:1002D0000700854618B020B5FFF7CAFFBDE82040EB
:1002E0004FF000064FF000074FF000084FF0000BF2
:1002F000AC46ACE8C009ACE8C009ACE8C009ACE861
:10030000C00921F007018D46704710B50446AFF3D0
:1003100000802046BDE81040FFF795BF0149182036
:10032000ABBEFEE7260002007047000030214FF010
:10033000A0400422C5F2000102600868400640F2B5
:10034000F000C2F2000019D582687F2A08DC0A6931
:1003500003681A44A2F500620260826801320CE070
:100360000268D31702EB536240F28C03D211C2F23F
:1003700000031A6000220260012282600A681206ED
:1003800058BF7047C2687F2A0ADC09694268114475
:10039000A1F500614160C1680131C160704700BFD3
:1003A0004168CA1701EB526140F29002C911C2F2D2
:1003B00000021160002141600121C160704700000E
:1003C00041F21401C4F20201086840F400300860F0
:1003D000086840F0805008604FF09040026842F09A
:1003E0000F0202608A69082042F49072C5F2000090
:1003F0008A61D0F8001321F44031C0F8001301687D
:1004000021F040510160016841F080510160416874
:1004100021F018014160416821F0200141604168EC
:1004200021F4005141604FF0A0410A6842F00102FE
:100430000A60026842F0010202600A68D20709D12C
:100440000A68D20704BF0A685FEAC27202D10A686A
:10045000D207F2D050F8041C41F0040140F8041C0B
:100460004EF21240CEF20000202101704EF2001038
:10047000CEF200004FF48021016070473021C5F2B8
:100480000001002201280A6004D0022806D1802041
:1004900001E000BF40200A681043086051F8280CB2
:1004A00040F0040041F8280C70470000FEE700000F
:1004B00041F21400C4F20200816841F000518160F1
:1004C000016841F4003101604FF09040016841F44F
:1004D00080610160016841F40061016047F2004001
:1004E000C4F20000016841F03801016041684160D8
:1004F0004FF48A618160016841F001010160704739
:100500007047000041F21400C4F20200016841F497
:1005100080010160416841F00101416041F2004009
:10052000C4F60000016821F001010160016821F0BA
:1005300002010160C16841F00101C160C16821F0A0
:100540000201C1600820C4F20100016841F0050108
:100550000160D0F8F81341F00101C0F8F81340F23F
:100560000C40C4F20100016841F0010101604EF24B
:100570000010CEF2000040210160704710B540F23B
:100580001440C4F20100016840F2081241F0010178
:100590000160C2F20002136844F6000440F2240E27
:1005A000C4F20104012BC2F2000E07D0B3B92368D4
:1005B00043F00103236001230FE000BF44F6240C45
:1005C000C4F2010CDCF80030CEF80030236823F0D0
:1005D000010323600023CCF80030136040F21402C2
:1005E000C2F2000213684FF63800CFF6FF702350B6
:1005F0004FF60000CFF6FF70235843F0010323505D
:10060000DEF800001368C11700EB91704FF634015B
:1006100003EBA000CFF6FF716050106840F280112C
:10062000DEF80020C2F200010860D11702EB9171E0
:1006300040F2841300EBA101C2F20003196002EB47
:100640004201CB1701EB937140F27C1300EBA10147
:10065000C2F20003196002EBD27100EB610040F2BC
:100660007811C2F20001086010BD000041F21400D0
:10067000C4F20200016841F480010160016841F4A4
:1006800080210160416841F00101416041F2004078
:10069000C4F60000016821F004010160016821F046
:1006A00008010160C16841F00401C160C16821F026
:1006B0000801C1600820C4F20100016841F0500146
:1006C0000160D0F8F81341F00201C0F8F81340F2CD
:1006D0000C40C4F20100016841F00201016040F2E7
:1006E0000040C4F60000016821F0010101600168CA
:1006F00021F002010160C16841F00101C160C168DF
:1007000021F00201C1604EF20010CEF20000802103
:100710000160704740F21440C4F20100016841F0EA
:100720000201016040F20C10C2F2000000680128D2
:1007300012D0002818BF704740F21040C4F60000E5
:10074000026840F21400C2F200000168D2070CBF38
:10075000023902310160704740F2104147F208400F
:10076000C4F60001C4F200000A680168D2070CBF99
:10077000053905310160704741F21400C4F20200EE
:10078000016841F400310160416841F001014160BC
:100790004FF09040016821F010010160016821F0E4
:1007A000200101600C20C4F60000016841F0100136
:1007B0000160016821F0200101600820C4F20100FD
:1007C00001680160D0F8F81341F00401C0F8F81393
:1007D00040F20C40C4F20100016841F004010160E4
:1007E0004EF20010CEF200004FF4807101607047AD
:1007F00040F21440C4F20100016841F004010160BC
:1008000040F20C10C2F200000168C1F10101016068
:10081000704700002DE9F04F83B00C68002C00F009
:10082000D38040F2004E00F1200240F60047C4F2AF
:10083000010E0192C4F60007052200254FF0000BBF
:100840004FF00008B84208BF032200924AE000BF00
:1008500040F60002C4F60002009E904208BF022645
:1008600005F00C030F279F402CEA070706FA03F355
:100870004FEA98023B4344F82230DEF808204B68E8
:1008800042EA0A0740F20C44DE0258BF22EA0A0795
:10089000CEF80870C4F2010422689E0242EA0A07F8
:1008A00058BF22EA0A072760DEF804209E0342EAC6
:1008B0000A0758BF22EA0A07CEF80470DEF80020C3
:1008C000DB0342EA0A0758BF22EA0A07CEF80070A3
:1008D0000C6808F1010834FA08F20BF1020B05F17B
:1008E000040571D0012202FA08FC14EA0C0AEFD0C8
:1008F0004F68032207F00304661E02FA0BF2012E72
:100900006FEA020912D88268CE6802EA090206FA82
:100910000BF6324382604268C7F3001622EA0C02EB
:1009200006FA08F63243426004E000BF032C01D10E
:1009300003241EE0C2688E6802EA090206FA0BF67A
:100940003243022CC26014D16FF00302019C02EA10
:10095000580205F01C060F2354F802C003FA06F7EC
:100960000B692CEA0707B3403B43A3504F6807F0DD
:100970000304026804FA0BF302EA09021A4317F4AB
:10098000403F0260A4D041F21803C4F202031A6887
:10099000AEF57E7442F001021A601A68B0F1904F11
:1009A00002F001020292029A28F0030254F802C0F7
:1009B00008D040F20042C4F6000290427FF448AFF3
:1009C00001264DE700264BE703B0BDE8F08F00009D
:1009D00040F28810C2F200000068704790F8412091
:1009E000202A03D190F84020012A01D1022070472B
:1009F000242280F841200268136823F00103136069
:100A0000136823F48053136013681943116011684D
:100A100041F001011160202180F84110002180F88F
:100A2000401000207047000090F84120202A03D198
:100A300090F84020012A01D102207047242280F83A
:100A400041200268136823F001031360136823F444
:100A5000706343EA01211160116841F001011160E6
:100A6000202180F84110002180F8401000207047BC
:100A7000002804BF0120704710B590F8411031B92B
:100A8000002180F84010044600F04AF82046242156
:100A900080F8411090E81210C3680A68012B22F018
:100AA00001020A6024F070620A618A6822F400423E
:100AB0008A6003D14CF400428A6009E04CF404429D
:100AC000022B8A6004D14A6842F4006203E000BF4E
:100AD0004A6822F400624A604A6800F1100C42F051
:100AE000007242F400424A60CA6822F40042CA60BE
:100AF0009CE81C101A4342EA0422CA60026A42EAD5
:100B00000C020A600A6842F001020A6000212022F9
:100B1000416480F84120016380F84210002010BD3C
:100B200010B586B0006845F20042C4F20002002110
:100B30009042CDE90411CDE90211019102D006B035
:100B400010BD00BF41F21404C4F20204206840F456
:100B500080202060206800F4802000900098C02051
:100B600001901220CDE90201032004900420059099
:100B700040F20040C4F6000001A9FFF74BFEA06858
:100B800040F40010A060A06800F4001000900098ED
:100B900006B010BD40F2000040F28811C2F2000021
:100BA000C2F2000100780A68104408607047000033
:100BB00080B542F20000C4F20200016841F0100169
:100BC0000160032000F072F8002000F005F800F04A
:100BD00027F8002080BD000070B540F20006C2F288
:100BE000000640F21C013278C2F200014FF47A7321
:100BF0000968B3FBF2F20446B1FBF2F1084600F0DB
:100C00003DFC0F2C4FF0010508D838B94FF0FF30EC
:100C100021460022002500F01DF87460284670BDB2
:100C200082B041F21800C4F20200016841F00101F3
:100C30000160016801F0010101910199416841F0F1
:100C400080514160406800F080500090009802B0F0
:100C50007047000010B54EF60C5CCEF2000CDCF8CC
:100C60000030C3F3022E8EF00704042C28BF0424A6
:100C7000BEF103034FF0FF3E0EFA04F438BF002329
:100C8000A14399400EFA03F39A43114300F00F0277
:100C900000F160430901043A03F56443624400280B
:100CA00048BF02F10C03197010BD00004EF60C5144
:100CB000CEF200010A684FF6FF031A4060F30A22E1
:100CC00042F0806040F0FD70086070472DE9F0410F
:100CD00082B00446807841F21C06C007C4F20206C6
:100CE0004AD030685FEAC00808D4306840F08050CD
:100CF0003060306800F080500190019847F20007A2
:100D0000C4F200073868C00512D4386840F4807017
:100D10003860FFF75DFE05463868C00508D4FFF768
:100D200057FE401B6428F7D9032002B0BDE8F081CC
:100D3000706810F4407012D0616801F4407188420C
:100D40000DD0706840F24042C4F24222012320F4E8
:100D5000407113600023C007136071603AD170685E
:100D6000616820F440700843B8F1000F706003D44C
:100D7000306820F0805030602068C10710D18106B3
:100D800016D401061CD4C00405D57069616920F42D
:100D9000807008437061002002B0BDE8F08100BFA0
:100DA0007169A26821F00301114371618106E8D5E0
:100DB0007169E26821F01001114371610106E2D509
:100DC0003169226921F4F87111433161C004DCD426
:100DD000E1E700BFFFF7FCFD054641F2883700BFA1
:100DE00070688007BBD4FFF7F3FD401BB8424FF09B
:100DF0000300F5D9D0E70000002804BF01207047A8
:100E00002DE9F04381B042F20008C4F20208044622
:100E1000D8F800000D4600F0070081420CD9D8F840
:100E2000000020F007002843C8F80000D8F80000B0
:100E300000F00700A8425ED1206841F20409810752
:100E4000C4F2020907D5D9F80010A26821F0F00118
:100E50001143C9F80010C00744D1D8F8000000F0D1
:100E6000070085420CD2D8F8000020F00700284384
:100E7000C8F80000D8F8000000F00700A8423AD1F6
:100E80002068410707D5D9F80010E26821F4E06135
:100E90001143C9F80010000708D5D9F800002169EE
:100EA00020F4605040EAC100C9F80000D9F80020E1
:100EB00002F00C00082841F20020C0F27A004DD167
:100EC00042F66053C2F38341C0F60003595CD9F87F
:100ED0002830D20338D440F60010C0F23D00484319
:100EE0003CE000BF606859F8041C022808D00128C3
:100EF00026D1890306D4012001B0BDE8F08300BFEC
:100F00008901F8D5D9F8001021F003010843C9F888
:100F10000000FFF75DFD064641F28837D9F8000072
:100F2000616800F00C00B0EB810F96D0FFF750FD28
:100F3000801BB842F2D9032001B0BDE8F08300BFA6
:100F40008907D8D5DEE700BF03F00F0242F67053E1
:100F5000C0F600039A5CB0FBF2F04843D9F80010E9
:100F600042F65052C1F30311C0F60002515C40F248
:100F70001C0220FA01F140F20400C2F200000068F5
:100F8000C2F200021160FFF727FE002001B0BDE8A9
:100F9000F0830000002804BF012070472DE9F041D4
:100FA00082B00446007841F20006C007C4F202068F
:100FB0000CD0706800F00C00042840F07F8030688E
:100FC000800303D56068002800F02E812078800718
:100FD0001BD5706810F00C0F09D0706800F00C0081
:100FE000082840F09F807068C00300F19B80306843
:100FF000800703D52069012840F0168130686169B7
:1010000020F0F80040EAC10030602078000713D4D7
:10101000207840072AD4E569002D00F0008170682F
:1010200000F00C00082840F0BB80012D40F0EC805F
:10103000012002B0BDE8F081A069002800F098808E
:101040000020C4F242200121C0F88014FFF7C0FC48
:10105000054600BF706A8007DAD4FFF7B9FC401B71
:101060000228F7D9032002B0BDE8F081F0695FEAF9
:10107000C00808D4F06940F08050F061F06900F0D9
:1010800080500190019847F20007C4F200073868C9
:10109000C00561D4386840F480703860FFF798FC70
:1010A000054600BF3868C00556D4FFF791FC401BC9
:1010B0006428F7D9032002B0BDE8F081706800F021
:1010C0000C00082803D17068C0033FF578AF616851
:1010D0003068B1F5A02F00F0ED80B1F5803F00F051
:1010E000ED80002920F4803040F0EC8030603068E2
:1010F00020F480203060F06AA16820F00F000843DF
:10110000F062FFF765FC0546306880037FF55EAF4F
:10111000FFF75EFC401B64284FF00300F4D902B0D7
:10112000BDE8F0812069002840F20000C4F24220AE
:1011300058D001210160FFF74BFC0546306880075D
:101140003FF55CAFFFF744FC401B0228F6D90320B3
:1011500002B0BDE8F08100BFE168306A00296FD0BD
:10116000052965D0012940F0838040F0010085E029
:101170000020C4F242200021C0F88014FFF728FCB0
:10118000054600BF706A80077FF542AFFFF720FC7D
:10119000401B0228F6D9032002B0BDE8F08100BF51
:1011A0000027C4F2422700203866FFF711FC022D09
:1011B00005460BD13068800140F1A080FFF708FCA4
:1011C000401B02284FF00300F4D9A8E730688001E3
:1011D00025D5FFF7FDFB401B02284FF00300F5D992
:1011E0009DE700BF00210160FFF7F2FB054600BF4D
:1011F000306880077FF509AFFFF7EAFB401B022844
:101200004FF00300F4D98AE77068216A00F4803255
:101210008A4209D1616A00F47010884204D100202A
:1012200002B0BDE8F08100BF012002B0BDE8F0814E
:1012300040F004003062306A40F001001EE000BF60
:1012400020F001003062306A20F004003062FFF7C5
:10125000BFFB054641F28837306A800720D5FFF78B
:10126000B7FB401BB8424FF00300F5D957E700BF6A
:1012700020F001003062306A20F004003062FFF795
:10128000A7FB054641F28837306A800708D4FFF78C
:101290009FFB401BB842F7D9032002B0BDE8F081A4
:1012A000B8F1000F3FF5B7AEF06920F08050F06163
:1012B000B1E600BF40F480203060306840F48030F8
:1012C00004E000BF3060306820F480203060F06AB5
:1012D000A16820F00F000843F062FFF779FB054694
:1012E000306880033FF572AEFFF772FB401B642845
:1012F000F6D9032002B0BDE8F08100BF7068D4E9E0
:10130000081220F4741010430843706001203866FE
:10131000FFF75EFB044600BF306880013FF57FAFFA
:10132000FFF756FB001B02284FF00300F4D9F6E646
:10133000002804BF01207047416A19B100210161F2
:10134000142104E04168B1F5827F02D01C21002203
:101350004250B0B50025856290F85D1029B980F83B
:101360005C50044600F052F82046022180F85D10DF
:101370000168D0F80CE00B68BEF5E06F23F0400385
:101380000B6098BF01254EF40063B3F5706F4FEA10
:10139000053C1CBF00258562D0E90154D0E9043228
:1013A00005F4827504F404442C4403F0020323443E
:1013B000846902F00102C5691A4404F400731A44F6
:1013C00005F03803056A1A4405F08003856A1A445B
:1013D00005F400531A430A600422436A0EF4706550
:1013E00002EA1442446B45EA0C0503F010032A4359
:1013F00004F008041A4322434A60002101220166D6
:1014000080F85D20BDE8B0400846704780B586B0E2
:10141000006843F20002C4F2010200219042CDE9CB
:101420000411CDE90211019102D006B080BD00BFC8
:1014300041F21400C4F20200426842F48052426059
:10144000426802F480520092009A026842F400322C
:101450000260006800F4003000900098E0200190E5
:101460000220CDE90201032004900520059001A986
:101470004FF09040FFF7CEF906B080BD411E00202E
:10148000B0EB116F1CBF012070474EF21002CEF27C
:10149000000251604EF62351CEF20001F0230B7092
:1014A0000721906011607047FEE70000FEE7000032
:1014B000FEE70000704700007047000080B540F272
:1014C0002000C2F2000001680268012918BF4FF035
:1014D000FF31114401600068C0B2FEF7CFFF40F257
:1014E0007410C2F200000168B1F57A7F0CD140F2AD
:1014F0008801C2F2000101220A6000210160BDE8FA
:101500008040FFF747BB00BF016801310160BDE8C3
:101510008040FFF73FBB0000B0B596B0002401202B
:10152000CDE91144CDE90F441090102011904FF4F3
:101530006010022515900CA8CDE90D440694CDE964
:101540000444CDE902440C95CDE91354FFF722FD84
:1015500020B1EFF3108072B6FEE700BF0F20CDE997
:1015600007054FF48060CDE90A0407A80221099419
:10157000FFF742FC20B1EFF3108072B6FEE700BF28
:10158000202001900020049001A8FFF79FFB28B1C4
:10159000EFF3108072B600BFFEE700BF802001901D
:1015A0004FF48070059001A8FFF790FB20B1EFF396
:1015B000108072B6FEE700BF16B0B0BD4EF6885080
:1015C000CEF20000016841F4700101607047000034
:1015D00044F21000C4F2010002680168920719D4B5
:1015E00021F0040140F280120160C2F20002816A1F
:1015F0001268914226D140F21841C4F600014FF41E
:1016000000120A6040F27811C2F20001096881629A
:10161000704700BF21F0020140F284120160C2F263
:101620000002416A126891421CD140F21841C4F68E
:10163000000102220A6040F27C11C2F20001096836
:101640004162704740F27811C2F20001806A096875
:10165000884218BF704740F21840C4F600002021AD
:101660000160704740F27C12C2F20002416A1268C7
:101670009142F6D140F21841C4F600014FF4003215
:101680000A6050F8101C21F0010140F8101C0021E4
:101690004161704744F21040C4F201000168C9077B
:1016A00003D0016821F0010101600168890732D58A
:1016B000016821F002010160426A40F21441B2F572
:1016C000F27FC4F600010BDC052A17D040F2DB13D1
:1016D0009A4220D10A6840F2E51342F0100218E065
:1016E00040F2E5139A420FD040F2BB339A4218BF42
:1016F00070470A68052322F008020AE00A6840F2EF
:10170000DB1322F0100204E00A6840F2BB3342F01F
:1017100008020A604362704741F21C00C4F20200F2
:10172000016841F01001016041F20000C4F20000C4
:1017300041684160C16841F00101C1600169016116
:10174000416A41621421816240F20C01C2F200013F
:101750000968C162016841F0010101604EF2364042
:10176000CEF20000202101704EF20410CEF20000F3
:101770004FF480010160704741F21001C4F2000192
:10178000086840F2180220F00100086040F28C0066
:10179000C2F20002C2F2000013680268584282429C
:1017A00040F20410C2F2000004DD9A4202DA002185
:1017B0000BE000BF40F20C03C2F200031B6803EB16
:1017C0004202CA610168C1F10101016040F20010EA
:1017D000C2F2000014220068C4F600021368084335
:1017E00023F0200008BF20301060704741F21C0039
:1017F000C4F20200016841F02001016041F20040A2
:10180000C4F2000041684160C16841F00101C1605B
:1018100001690161416A41620721816240F2080168
:10182000C2F200010968C162016841F00101016072
:101830004EF23740CEF20000202101704EF204102B
:10184000CEF200004FF400010160704741F21040F9
:10185000C4F20000016840F2100221F001010160B1
:1018600040F29001C2F20002C2F20001126809685F
:101870005342994208DD914206DA40F20011C2F269
:1018800000010020086016E040F2001C40F208024F
:10189000C2F2000CC2F20002DCF800301268C3F1A0
:1018A000010302EB4101CCF80030C161DCF800001B
:1018B000002818BF012040F204111422C2F20001D6
:1018C000C4F6000209681368C00723F02003184615
:1018D00008BF2030002918BF18461060704700006C
:1018E000FEE700000000000082B045F20046C4F2AE
:1018F0000006FFF75DF9FFF70FFE41F21400C4F296
:101900000200016840F2880441F40031016001687E
:10191000C2F2000401F40031019101990168002232
:1019200041F480210160006841F62B5100F48020D1
:1019300000900098204640F8146FC0F2200100F19A
:10194000040C01238CE80E00C0E90422C0E9062241
:101950000262FFF78DF828B1EFF3108072B600BF76
:10196000FEE700BF04F1140528460021FFF736F812
:1019700020B1EFF3108072B6FEE700BF28460021C9
:101980000025FFF751F828B1EFF3108072B600BFC1
:10199000FEE700BF40F2101006F55C41C2F2000005
:1019A0004FF482724FF440734FF40077102680E8B2
:1019B000260007210822C0E90335C0E90557C661A2
:1019C000C0E90855C0E90A51C0E90C52FFF7B0FC64
:1019D00020B1EFF3108072B6FEE700BF00F0CAF846
:1019E00000F06AF800F01EF9FEF78CFDFEF73EFEEF
:1019F000FEF7C2FE4EF21000CEF20000016841F088
:101A0000030101604FF4C8514160FEF7D9FCFEF7B5
:101A10004FFDFFF781FEFFF7E9FE00F031F99FED82
:101A2000240B4FF0000955EC108B00BF20680028F4
:101A3000FCD0C4F80090606800F0DCFD02460B4664
:101A400000F0F0FD0646A0680F4600F0D3FD024608
:101A50000B4600F0E7FD02460B463046394600F0E3
:101A6000C5FB41EC100B00F0A3FA51EC100B00F099
:101A70008BFBE06094ED010A94ED021AB8EEC00A07
:101A8000B8EEC11A80EE010A10EE100A01F08EF8CD
:101A900041EC100B00F020F951EC100B42462B46A4
:101AA00000F0C0FD00F070FB2061BFE700BF00BF89
:101AB000000000000000594041F21400C4F202008E
:101AC000016840F2140C41F48021016040F20041B1
:101AD000C4F600010A68C2F2000C42F004020A6077
:101AE0000A6822F008020A600A6842F480620A600A
:101AF0000A6822F400620A6041684FF6FF7241F4FE
:101B00008031416044F20400C4F2010001680160C8
:101B100041684160816841F006018160C168C1602F
:101B20000169016141694161C169C16100210162CD
:101B30004162826240F22402C162C2F20002126873
:101B4000DCF80030D11702EB917103EBA1010163C6
:101B5000DCF800104163016C0164416C4164816CEC
:101B600081644EF20010CEF200004FF080710160EF
:101B70007047000041F21400C4F2020041680922DB
:101B800041F400314160016841F48021016040F27C
:101B90000040C4F60000016841F0400101600168A6
:101BA00021F080010160016841F4807101600168E9
:101BB00021F4007101604FF40021816110218161E5
:101BC00044F20040C4F2010041684160C16841F044
:101BD0000301C160016901614169416181698161FC
:101BE000016A41F0010101620021416282624FF409
:101BF0007072C262016305214163416C4FF0007253
:101C00004164816C8164C16CC164016D01654EF2F7
:101C10000011CEF200010A60016841F0010101608B
:101C20007047000041F21400C4F2020041684FF610
:101C3000FF7241F480214160016841F4802101601C
:101C400044F60400C4F2010001680160816881600B
:101C5000C168C1600169016141694161C169C161D6
:101C60000021016241628262C1620163016C016410
:101C7000416C4164816C8164C16CC1647047000037
:101C800041F21400C4F20200016841F40031016025
:101C90004FF09040016841F480610160016821F4D7
:101CA00000610160704703B401984100009850EA58
:101CB000C12018BF04204A0D18BF40F0010040F2B7
:101CC000FF72B2EB515F08BF40F00200012808BF6D
:101CD000052002B07047000070B59B482DED020B47
:101CE0002DED068B079D25F00044A04218DC974897
:101CF000844202DC0AD1069840B19DED060BBDEC92
:101D0000068B02B0BDE8704000F00BBA002DCCBFCE
:101D10009FED8F0B9FED900BBDEC068B02B070BD5D
:101D20008F48A04215DD8F48A042D8BF4FF0FF3446
:101D300058DD9DED060B51EC100BFFF7B4FF0428A6
:101D400008BF00F0F9F99DED060BBDEC068B02B063
:101D500070BD9DED060B51EC100B00F0FDF9CDE9C7
:101D6000060181489FED828BA0423CDD8248A04263
:101D70001FDD00249FED82AB9DED060B53EC1A2B6B
:101D800051EC100B00F032FA9DED060B41EC190BF3
:101D900053EC1A2B51EC100B00F044FC53EC182BB5
:101DA00000F016FE53EC192B00F0C8FACDE906013D
:101DB00049E09DED060B012453EC182B51EC100B60
:101DC00000F014FA9DED060B41EC190B53EC182BA7
:101DD00051EC100B00F0FCFD53EC192B00F0AEFAA7
:101DE000CDE906012FE06848A0421FDD02249FEDE7
:101DF000689B9DED060B53EC192B51EC100B00F07A
:101E000011FC53EC182B00F0F1F99DED060B41ECA1
:101E1000180B53EC192B51EC100B00F0D9FD53ECBF
:101E2000182B00F08BFACDE906010CE09DED060BB6
:101E3000032453EC102B9FED580B51EC100B00F0CA
:101E40007DFACDE906019DED060B53EC102B51EC0C
:101E5000100B00F0E7FB41EC180B53EC182B00F0D3
:101E6000E1FB41EC190B4E480621B0EE490AF0EEB9
:101E7000690A784400F0D9F853EC182B51EC100B98
:101E800000F0D0FB41EC180B4648B0EE490AF0EEEA
:101E9000690A0521784400F0C8F853EC192B51EC7D
:101EA000100B00F0BFFB41EC100B51EC180B53EC86
:101EB000102B002C0EDA00F099F99DED061B53EC67
:101EC000112B00F0AFFB9DED061B53EC112B00F026
:101ED000A7FC35E000F08AF99DED061B53EC112BB1
:101EE00000F0A0FB41EC100B2F48784400EBC4003D
:101EF00090ED001B51EC100B53EC112B00F068FD22
:101F00009DED061B53EC112B00F062FD41EC100B14
:101F10002648784400EBC40090ED001B51EC100BF8
:101F200053EC112B00F07CFC41EC100B002DA2BFF8
:101F3000BDEC068B02B070BD51EC100B00F018F92F
:101F400041EC100B01E70000000010440000F07F9E
:101F5000182D4454FB21F93F182D4454FB21F9BF9F
:101F60000000DC3F0000203E0000F33F00000000C6
:101F7000000000000000F03F0000E63F000000000D
:101F8000000000000000004000800340000000004E
:101F9000000000000000F83F000000000000F0BF5B
:101FA000AA0E0000600E0000EA0D0000A20D000065
:101FB00000B52DED048BB0EE409AF0EE609A83B040
:101FC00051EC190B00F038FC41EC180B18EE100A1C
:101FD00018EE901A8DED008B002818BF01200843E1
:101FE00020F00040C0F17F6000F1E040C00F14D04D
:101FF00019EE101A19EE900A8DED009B002918BFFA
:102000000121084320F00040C0F17F6000F1E04072
:10201000C00F04BF0120FEF745F9B0EE480A03B037
:10202000F0EE680ABDEC048B00BD70B504462DEDE2
:10203000028B4D1E00EBC500B0EE408AF0EE608AC8
:1020400090ED000B35F0060017D053EC182B51EC37
:10205000100B00F0E7FA41EC100B6D1E04EBC5000D
:1020600090ED001B51EC100B53EC112B00F0BEF85F
:1020700041EC100B35F00600E7D1022D36D0042DCF
:102080001CD0062D1CBFBDEC028B70BD53EC182B71
:1020900051EC100B00F0C6FA94ED0A1B53EC112B17
:1020A00000F0A4F853EC182B00F0BCFA94ED081BD8
:1020B00053EC112B00F09AF841EC100B53EC182B59
:1020C00051EC100B00F0AEFA94ED061B53EC112B03
:1020D00000F08CF853EC182B00F0A4FA94ED040BEC
:1020E00053EC102B00F082F841EC100B53EC182B42
:1020F00051EC100B00F096FA94ED021B53EC112BEF
:1021000000F074F853EC182B00F08CFA94ED001BDF
:1021100053EC112B00F06AF8BDEC028B41EC100B74
:1021200070BD10B553EC102B51EC100B00F05EF8A5
:1021300041EC100B10BD00009FED050B10B553ECEA
:10214000102B51EC100B00F06DFA41EC100B10BD90
:10215000000000000000001082B0CDE9000121F075
:10216000004001909DED000B02B051EC100B704748
:1021700081F00041704780F00040704721F000413D
:10218000704720F00040704721F0004201F000430A
:10219000A2F16052B2F5801F28BFD2F17F6C0BD93B
:1021A0005FEA001C43EAC20242EB507018BF70475E
:1021B00028BF20F001007047B2F5801FBCBF184651
:1021C00070474FEA410C1CF5001F02D2084600F090
:1021D0006BBD70B500F0D0FA00000089FFF7F6BFC4
:1021E0004FF00040A0F580007047000010B591EA64
:1021F000030F48BF83F0004300F1F283841A71EBB0
:10220000030C05D2121943EB0C03001B61EB0C010C
:102210004FEA1154A4EB135CDFF81CE11EEA430FF4
:1022200018BF9EEA445F00F0748021EA045123EA5B
:102230000E0343F48013DCF1200E32D322FA0CFE9D
:1022400010EB0E0023FA0CFE41EB0E01CCF1200E38
:1022500003FA0EFE10EB0E00CCF1200E51F100013E
:10226000B1F5801F32D201EB045112FA0EF2BDE833
:10227000104058BF7047401C38BF5FEA420218BF89
:102280007047002814BF20F0010041F100014FEA1F
:10229000410313F5001F38BF7047A1F1C04100F0A2
:1022A000B9BA012A43EB0302ACF1200CDCF11F0E9A
:1022B00032BF4FF0000E23FA0CF310EB030041EB9A
:1022C0000451B4EB115FD0D0A1EB045101F58011A2
:1022D000490801EB04515FEA30000ED350F10000D1
:1022E00038BF12FA0EFE08D1BDE81040C9E7401C05
:1022F00038BF5FEA4202CAD1C3E7BDE810404FEAE7
:10230000410313F5001F38BF7047A1F1C04100F031
:1023100081BA9EEA445F08D011EA5E0FBDE8104022
:1023200004BF01F0004100207047BDE8104070B5C7
:1023300000F022FA64FBBE3E0000E0FF2DE9C04140
:1023400030B4DFF8A8C23CEA111418BF3CEA1314F9
:1023500000F0F0801CEA111481EA030544EAD57408
:1023600018BF1CEA131500F0CB80A4EB050404F1A0
:102370007F7404F500344FF0004545EAC12145EA79
:10238000C32341EA505143EA52534FEAC0204FEA77
:10239000C222994208BF904200F0A0804FEA136524
:1023A0000FF24816765D4FEA134506FB05F7C7F1B5
:1023B000807706FB07F74FEAD737A7FB036876421B
:1023C000A7FB06CEC8F5803838BFA8F1010807FB87
:1023D00008E6A6FB028C4FF0000EE6FB03CED8F118
:1023E00000086FEA0C0C5CF1000C6FEA0E0E4EF167
:1023F000004EA6FB0C584FF00007E6FB0E87A1FB32
:1024000008C6A0FB07CE16EB0E064FF0000545F1FF
:102410000005E1FB076515F1E04E7EBFA4F58034B1
:102420005FEA46066D4116F1800745F100054FEA67
:10243000172747EA05674FEA15254FEA0666A6F112
:10244000DE46B6F1805F20D9384605EBC47124F032
:10245000010C01EB0C11BCF1FE6F02D8F0BCBDE821
:10246000008124425CBF01F5801E9EEAC47F02D435
:10247000F0BCBDE80081244200F13980A1F1C041E7
:10248000F0BCBDE8004100F0C5B94FEAD02040EAF9
:1024900041504FEAD1214FEAD22242EA43524FEA59
:1024A000D323A7FB028607FB036605FB02661EEA31
:1024B0000E0F58BFA6EB0056B6EB00564FEA520E71
:1024C0004EEAC37E18EB0E0E56EB530EBCD518EB3E
:1024D00002085E417F1C55F10005B5E74FF48015F9
:1024E0004FF000074FF000064FF00008ACE701F195
:1024F000C04101F000414FF00000F0BCBDE8008198
:102500000CEA131511EA0C1F00D00CE013EA0C1FA3
:1025100000F025804FF0000081EA030101F0004146
:10252000F0BCBDE80081F0BCBDE8004181EA0301D8
:1025300000F070B9F0BCBDE8004170B500F01CF9C6
:10254000097EFC3E00F007B84FF0000081EA03016D
:1025500001F00041704781EA030100F05BB9F0BC73
:10256000BDE8004122494FF000007047FFFDFBF934
:10257000F7F5F4F2F0EEEDEBE9E8E6E4E3E1E0DEB6
:10258000DDDBDAD8D7D5D4D3D1D0CFCDCCCBCAC828
:10259000C7C6C5C4C2C1C0BFBEBDBCBBBAB9B8B74F
:1025A000B6B5B4B3B2B1B0AFAEADACABAAA9A8A842
:1025B000A7A6A5A4A3A3A2A1A09F9F9E9D9C9C9B10
:1025C0009A999998979796959594939392919190BB
:1025D0008F8F8E8E8D8C8C8B8B8A8989888887874C
:1025E0008685858484838382828181800000FF07C1
:1025F0000000F87F10F0004248BF4042B0FA80F37C
:1026000010FA03F10AD0C3F11D0303F5806302EB56
:1026100003524FEA415002EBD12170474FF00000C6
:102620007047000070B5DFF848C11CEA111E1EBFDC
:102630001CEA13159EEA0C0F95EA0C0F00F06F8050
:1026400081EA03044EEAD47EAE4421EA4C1123EA27
:102650004C1341F4801143F48013AEF17F7EA1FB53
:10266000024CA0FB0365361955EB0C05A1FB034C8E
:102670004CF10003A0FB021C16EB0C06654153F164
:102680000003094218BF46F0010613F4007F0BD186
:102690004FEA03314FEA053041EA155140EA16503E
:1026A00034036FF003020AE04FEAC3214FEAC5206A
:1026B00041EA555140EA5650F4026FF0020202EB33
:1026C0002E4201EB025585EACE710AD05FEA440C36
:1026D00018BF24F0004450F1000041F1000120EA4D
:1026E000D47040F2FE7C624500D270BDA84214BF97
:1026F0004FF080444FF04044002E08BF0024BEF14C
:10270000806FA8BFA1F1C041BDE8704080F2828017
:1027100001F1C04101F000414FF0000070470CEAA8
:1027200013159EEA0C0F18BF95EA0C0F06D081EA2C
:10273000030E4FF000000EF0004170BD00F01CF8D9
:102740008900013E00F007B800F009B84FEA430CD9
:102750005FEA5C5C08D081EA030100F05BB84FEAF5
:10276000410C5FEA5C5CF6D102494FF00000704713
:102770000000FF070000F87F0EF1020E2EF0030E9E
:102780005EF8046B364205D4012A43EB030515F5C8
:10279000001F12D8012841EB010C1CF5001F0CD8BA
:1027A0000ED14FEAD17C0CEB4C0C0CF1020C15F560
:1027B000001F08BF4CEBD37C04E04FF0080C01E095
:1027C0004FEAD37C0CEB4C0526FA05F606F007061B
:1027D000B6F1040C06D20EEB860CBDE870404CF04E
:1027E000010C6047DFE80CF0090B02024FF00041DA
:1027F000A1F500214FF0000070BD194610460128D8
:1028000051EB010418BFD4F5001484BF002001F07F
:10281000004170BD0808A0F500114FEA3101704772
:1028200010B591EA030F81F000413FF5E7AC83F06A
:10283000004300F0D5B800002DE9F04101F5801CFF
:10284000BCF5001FC0F2A9804FEA115C21EA0C51CF
:1028500041F480110CF1FD0C5FEA5C0C0CF5C07CBE
:1028600001D340004941890241EA905187022EA4D8
:102870008E0EA45D0A0C04FB04F602FB06F6C6F1FC
:102880004046A4FB0662F60D46EA422606FB06F425
:10289000A4FB01235242C3F1404338BF5B1EA6FB99
:1028A00002420024E6FB0324D20B42EA4446A6FB84
:1028B0000623A1FB02E2A3FB07E4E3FB61426442BF
:1028C000C2F1404E38BFAEF1010EA6FB04234FF01B
:1028D0000002E6FB0E32A2FB03463400E2FB626418
:1028E000A1FB06E6A4FB07E8E4FB61687642C8F1B9
:1028F000405838BFA8F10108A2FB06E4A3FB08E595
:10290000E2FB6854A1FB05E6A7FB04E8E1FB648653
:1029100018F1200556F10006A80940EA8660B109C1
:10292000A8F11B0808F03F08B8F10A0F1CD901EB09
:102930000C51BDE8F08100BFFCF5EEE8E2DDD8D334
:10294000CFCBC7C3C0BDB9B6B4B1AEACA9A7A5A320
:10295000A19F9D9B9A9896959392908F8D8C8B8931
:102960008887868584838281A0FB006800FB01F252
:1029700008EB4208B8EB872807D5341858EB010458
:10298000D5D5401C51F10001D1E7341A78EB010490
:10299000CDD4401E71F10001C9E75FEA4C0C5FEA3B
:1029A0009C5C0DD105D301F000414FF00000BDE863
:1029B000F081BDE8F04170B5FFF7DEFE6DDBFFBED4
:1029C000BDE8F04101494FF0000070470000F87F7A
:1029D00010B591EA030F48BF83F000433FF50EACFA
:1029E000841A71EB030C07D28CF0004C121943EBE4
:1029F0000C03001B61EB0C014FEA1154A4EB135CB8
:102A0000DFF8A4E11EEA430F18BF9EEA445F00F01E
:102A1000B48021EA045123EA6E035242C3EB6E03F1
:102A200038BF5B1EDCF1200E25D322FA0CFE10EB22
:102A30000E0043FA0CFE41EB0E01CCF1200E03FA1E
:102A40000EFE10EB0E00CCF1200E51F1000129D446
:102A500001EB045112FA0EF2BDE8104058BF704766
:102A6000401C1CBFB2F1004F704700280CBF491C2E
:102A700020F00100704712EB020E43EB030218BF77
:102A80004FF0010E4EEA4202ACF1200CDCF11E0EBA
:102A900056D943FA0CFE10EB0E00CCF11E0E51F18C
:102AA000FF31D5D50EF1010E12FA0EFE404141EB79
:102AB000010101EB445C5FEA5C5C10D901EB04515D
:102AC00010EBDE7038BFBEF1004FBDE8104018BFFC
:102AD000704700280CBF491C20F00100704734D219
:102AE0004FEAD42C24F4006411F500111BD0B1FA84
:102AF00081F20B3AA41AA41ED2F12003914030FABD
:102B000003F31943904001EBCC7101EB0451002C0D
:102B1000BDE81040A8BF704701F1C04101F000417D
:102B20004FF000007047B0FA80F310FA03F102D1C1
:102B3000BDE810407047E41A173C4805C90AE2E7AF
:102B400001EB0451BDE81040704749104FEA3000D6
:102B500001EB0451BDE8104002E04FF00001704766
:102B60004A0008BF0042F8D0B2F5001F28BF7047E6
:102B700001F000414FF0000070479EEA445F07D02B
:102B800011EA5E0FBDE8104004BF0021002070472D
:102B9000BDE8104070B5FFF7EFFD00BF40DFF63E27
:102BA000104683F0004170470000E0FF43004FEA09
:102BB000D30C4FEA3C0C43401FBF40070CF160515F
:102BC00013F0FE4F70471CF0006F03D10CF0004172
:102BD000002070470CF0004343EA507040EACC00FC
:102BE00010B500F00EF800BF000000924FEA00019F
:102BF000FFF710BE4FF00041A1F500214FF000009B
:102C000070470EF1020E2EF0030E5EF8044B2442C4
:102C100004D44FEA4102B2F17F4F11D84FEA40038A
:102C2000B3F17F4F0CD80ED14FEAD07C0CEB4C0C9B
:102C30000CF1020CB2F17F4F08BF4CEBD17C04E0E9
:102C40004FF0080C01E04FEAD17C0CEB4C0324FA66
:102C500003F404F00704B4F1040C06D20EEB840C68
:102C6000BDE810404CF0010C6047DFE80CF00708AD
:102C700002024FF00040A0F5800010BD084642005F
:102C800018BFD2F1807288BF00F0004010BDF1EE95
:102C9000100A4FF6FF71C0F2C03120EA010040F087
:102CA0004070E1EE100A7047FF2141EAD050C005A4
:102CB00070470000000000004FBB610567ACDD3FBE
:102CC000182D4454FB21E93F9BF681D20B73EF3F53
:102CD000182D4454FB21F93FE2652F227F2B7A3CCB
:102CE000075C143326A6813CBDCBF07A8807703C84
:102CF000075C143326A6913CC4EB98999999C9BFF7
:102D0000711623FEC671BCBF6D9A74AFF2B0B3BF2B
:102D10009AFDDE522DDEADBF2F6C6A2C44B4A2BFEB
:102D20000D5555555555D53FFF8300922449C23F57
:102D30006E204CC5CD45B73F513DD0A0660DB13F8B
:102D4000EB0D76244B7BA93F11DA22E33AAD903F9D
:102D5000000000000000000001020304060708094B
:102D600002030405060708090A0B0C0D0E0F1010CC
:102D70000102030405060708090A0B0C0D0E0F10CB
:102D8000A02D00080000002028000000EC01000831
:102D9000C82D000828000020680700000C02000869
:102DA000010000001000000088130000282300002C
:102DB00028000000E80300002800000000127A004C
:082DC000010000007017000083
:040000050800018965
:00000001FF
